:020000040000FA
:10000000012883160030880085001F308600B83034
:1000100087000317880189018312031300308800C9
:10002000850087002D210430B0002030A4000C3062
:10003000A3000030A200AC00A800FA20AB012B14F2
:10004000061D23284428D920F120DF20F120A40B0D
:100050002028C120AB206D20792085202F282C0856
:10006000A800FA202030A400362020282608303EA0
:1000700037212708303E37210A3037210D3037210C
:1000800008002308A20008002C082302031D4B28A7
:100090004928AB104B2891209E2062204120220845
:1000A000A800FA20D920F120DF20F12058202F28A5
:1000B0002308AD00AD0CAD0CAE00AE0C2D08230234
:1000C000AF0008002308300203196C286720031CC6
:1000D0006C283008A3006C2808002C082D02031996
:1000E00078287220031C78280710871007157828B5
:1000F00008002C082D02031884287E200319842868
:10010000071087140711842808002C082F020318F1
:1001100090288A2003199028071487100711902827
:100120000800061C9D28F120061C9D28A30A06181D
:100130009728F120061897289D280800861CAA28D1
:10014000F120861CAA28A3038618A428F12086186B
:10015000A428AA280800061EC028F120061EC028D0
:100160002B1CB328B828AC03AB10031DB828BE283D
:10017000061AB828F120061AB828C0282B14B82867
:100180000800861DD828F120861DD828AB1CC92858
:10019000D228AC0A2B102C082302031DD228D02809
:1001A000AB14D2288619D228F1208619D228D82853
:1001B000080005102708E520880085140800851030
:1001C0002608E52088000514080082073F3406341D
:1001D0005B344F3466346D347D3407347F346F3490
:1001E0000800FF30A0001930A100A10BF528A00BDA
:1001F000F3280800A501A601A7010830A9000030D6
:10020000A80703192C290310A80DA70D271E0B29D9
:100210000314A60D0D290310A60D2712261E13295F
:100220000314A50D15290310A50D2612A90B1929D4
:100230002C292708AA000530AA02031C2229270816
:10024000033EA7002608AA000530AA02031C2B299A
:100250002608033EA6000329080083160313243052
:1002600098001930990083129030980008000C1201
:0E027000990083160313981C3B298312080083
:02027E0000344A
:02028000003448
:02400E00F13887
:02401000FF3F70
:00000001FF
